{
  "contractName": "HelloWorld",
  "abi": [
    {
      "inputs": [],
      "stateMutability": "nonpayable",
      "type": "constructor"
    },
    {
      "anonymous": false,
      "inputs": [
        {
          "indexed": false,
          "internalType": "string",
          "name": "newName",
          "type": "string"
        }
      ],
      "name": "NameUpdated",
      "type": "event"
    },
    {
      "inputs": [],
      "name": "name",
      "outputs": [
        {
          "internalType": "string",
          "name": "",
          "type": "string"
        }
      ],
      "stateMutability": "view",
      "type": "function",
      "constant": true
    },
    {
      "inputs": [
        {
          "internalType": "string",
          "name": "_name",
          "type": "string"
        }
      ],
      "name": "setName",
      "outputs": [],
      "stateMutability": "nonpayable",
      "type": "function"
    },
    {
      "inputs": [],
      "name": "getName",
      "outputs": [
        {
          "internalType": "string",
          "name": "",
          "type": "string"
        }
      ],
      "stateMutability": "view",
      "type": "function",
      "constant": true
    }
  ],
  "bytecode": "0x60806040523480156200001157600080fd5b506040518060400160405280600d81526020017f48656c6c6f2c20576f726c64210000000000000000000000000000000000000081525060009081620000589190620002d9565b50620003c0565b600081519050919050565b7f4e487b7100000000000000000000000000000000000000000000000000000000600052604160045260246000fd5b7f4e487b7100000000000000000000000000000000000000000000000000000000600052602260045260246000fd5b60006002820490506001821680620000e157607f821691505b602082108103620000f757620000f662000099565b5b50919050565b60008190508160005260206000209050919050565b60006020601f8301049050919050565b600082821b905092915050565b600060088302620001617fffffffffffffffffffffffffffffffffffffffffffffffffffffffffffffffff8262000122565b6200016d868362000122565b95508019841693508086168417925050509392505050565b6000819050919050565b6000819050919050565b6000620001ba620001b4620001ae8462000185565b6200018f565b62000185565b9050919050565b6000819050919050565b620001d68362000199565b620001ee620001e582620001c1565b8484546200012f565b825550505050565b600090565b62000205620001f6565b62000212818484620001cb565b505050565b5b818110156200023a576200022e600082620001fb565b60018101905062000218565b5050565b601f82111562000289576200025381620000fd565b6200025e8462000112565b810160208510156200026e578190505b620002866200027d8562000112565b83018262000217565b50505b505050565b600082821c905092915050565b6000620002ae600019846008026200028e565b1980831691505092915050565b6000620002c983836200029b565b9150826002028217905092915050565b620002e4826200005f565b67ffffffffffffffff8111156200030057620002ff6200006a565b5b6200030c8254620000c8565b620003198282856200023e565b600060209050601f8311600181146200035157600084156200033c578287015190505b620003488582620002bb565b865550620003b8565b601f1984166200036186620000fd565b60005b828110156200038b5784890151825560018201915060208501945060208101905062000364565b86831015620003ab5784890151620003a7601f8916826200029b565b8355505b6001600288020188555050505b505050505050565b61081a80620003d06000396000f3fe608060405234801561001057600080fd5b50600436106100415760003560e01c806306fdde031461004657806317d7de7c14610064578063c47f002714610082575b600080fd5b61004e61009e565b60405161005b91906102dc565b60405180910390f35b61006c61012c565b60405161007991906102dc565b60405180910390f35b61009c60048036038101906100979190610447565b6101be565b005b600080546100ab906104bf565b80601f01602080910402602001604051908101604052809291908181526020018280546100d7906104bf565b80156101245780601f106100f957610100808354040283529160200191610124565b820191906000526020600020905b81548152906001019060200180831161010757829003601f168201915b505050505081565b60606000805461013b906104bf565b80601f0160208091040260200160405190810160405280929190818152602001828054610167906104bf565b80156101b45780601f10610189576101008083540402835291602001916101b4565b820191906000526020600020905b81548152906001019060200180831161019757829003601f168201915b5050505050905090565b6000815111610202576040517f08c379a00000000000000000000000000000000000000000000000000000000081526004016101f99061053c565b60405180910390fd5b80600090816102119190610712565b507f9f7688a97f1ac51fe03bac18af18d6810f9f11f0db08c59b1938a9ac825ef7448160405161024191906102dc565b60405180910390a150565b600081519050919050565b600082825260208201905092915050565b60005b8381101561028657808201518184015260208101905061026b565b60008484015250505050565b6000601f19601f8301169050919050565b60006102ae8261024c565b6102b88185610257565b93506102c8818560208601610268565b6102d181610292565b840191505092915050565b600060208201905081810360008301526102f681846102a3565b905092915050565b6000604051905090565b600080fd5b600080fd5b600080fd5b600080fd5b7f4e487b7100000000000000000000000000000000000000000000000000000000600052604160045260246000fd5b61035482610292565b810181811067ffffffffffffffff821117156103735761037261031c565b5b80604052505050565b60006103866102fe565b9050610392828261034b565b919050565b600067ffffffffffffffff8211156103b2576103b161031c565b5b6103bb82610292565b9050602081019050919050565b82818337600083830152505050565b60006103ea6103e584610397565b61037c565b90508281526020810184848401111561040657610405610317565b5b6104118482856103c8565b509392505050565b600082601f83011261042e5761042d610312565b5b813561043e8482602086016103d7565b91505092915050565b60006020828403121561045d5761045c610308565b5b600082013567ffffffffffffffff81111561047b5761047a61030d565b5b61048784828501610419565b91505092915050565b7f4e487b7100000000000000000000000000000000000000000000000000000000600052602260045260246000fd5b600060028204905060018216806104d757607f821691505b6020821081036104ea576104e9610490565b5b50919050565b7f4e616d652063616e6e6f7420626520656d707479000000000000000000000000600082015250565b6000610526601483610257565b9150610531826104f0565b602082019050919050565b6000602082019050818103600083015261055581610519565b9050919050565b60008190508160005260206000209050919050565b60006020601f8301049050919050565b600082821b905092915050565b6000600883026105be7fffffffffffffffffffffffffffffffffffffffffffffffffffffffffffffffff82610581565b6105c88683610581565b95508019841693508086168417925050509392505050565b6000819050919050565b6000819050919050565b600061060f61060a610605846105e0565b6105ea565b6105e0565b9050919050565b6000819050919050565b610629836105f4565b61063d61063582610616565b84845461058e565b825550505050565b600090565b610652610645565b61065d818484610620565b505050565b5b818110156106815761067660008261064a565b600181019050610663565b5050565b601f8211156106c6576106978161055c565b6106a084610571565b810160208510156106af578190505b6106c36106bb85610571565b830182610662565b50505b505050565b600082821c905092915050565b60006106e9600019846008026106cb565b1980831691505092915050565b600061070283836106d8565b9150826002028217905092915050565b61071b8261024c565b67ffffffffffffffff8111156107345761073361031c565b5b61073e82546104bf565b610749828285610685565b600060209050601f83116001811461077c576000841561076a578287015190505b61077485826106f6565b8655506107dc565b601f19841661078a8661055c565b60005b828110156107b25784890151825560018201915060208501945060208101905061078d565b868310156107cf57848901516107cb601f8916826106d8565b8355505b6001600288020188555050505b50505050505056fea2646970667358221220d076119608b0ee863c53f93f4f16eece9d72edcbba98cd2785bbf9a6f2c27bbb64736f6c63430008130033",
  "immutableReferences": {},
  "source": "// SPDX-License-Identifier: MIT\r\npragma solidity ^0.8.19;\r\n\r\ncontract HelloWorld {\r\n    string public name;\r\n\r\n    event NameUpdated(string newName);\r\n\r\n    constructor() {\r\n        name = \"Hello, World!\";\r\n    }\r\n\r\n    function setName(string memory _name) public {\r\n        require(bytes(_name).length > 0, \"Name cannot be empty\");\r\n        name = _name;\r\n        emit NameUpdated(_name);\r\n    }\r\n\r\n    function getName() public view returns (string memory) {\r\n        return name;\r\n    }\r\n}\r\n",
  "sourcePath": "D:\\my_projects\\my_projects\\dapp\\contracts\\HelloWorld.sol",
  "compiler": {
    "name": "solc",
    "version": "0.8.19+commit.7dd6d404.Emscripten.clang"
  },
  "schemaVersion": "3.4.16",
  "updatedAt": "2025-02-15T18:05:52.933Z",
  "networkType": "ethereum",
  "devdoc": {
    "kind": "dev",
    "methods": {},
    "version": 1
  },
  "userdoc": {
    "kind": "user",
    "methods": {},
    "version": 1
  }
}